:1000000000800020C1010014850100148701001444
:10001000890100148B0100148D0100149276FF6792
:100020000000000000000000000000008F0100142C
:1000300091010014000000009301001495010014C8
:1000400097010014914E0010970100140000000069
:1000500097010014970100149701001497010014F0
:10006000E950001097010014970100149701001443
:1000700097010014970100149701001497010014D0
:1000800097010014970100149701001497010014C0
:1000900097010014970100149701001497010014B0
:1000A00097010014970100149701001497010014A0
:1000B0009701001497010014970100149701001490
:1000C0009701001497010014970100149701001480
:1000D0009701001497010014970100149701001470
:1000E0009701001497010014970100149701001460
:1000F00000000000970100149701001497010014FC
:1001000000000000970100149701001497010014EB
:1001100097010014848B0014A8660010CC00000026
:100120002069001400000020000000002069001475
:10013000000008100000000020690014008000206A
:1001400064220000848B001400C000200000000026
:100150007802001400000010A06600000068001083
:10016000480B000000000020000000000000081004
:100170000000000064A200200000000000C0002079
:1001800000000000FEE7FEE7FEE7FEE7FEE7FEE711
:10019000FEE7FEE7FEE7FEE710B50B465C1A944269
:1001A00004D2441AE45843F8044BF7E710BD034661
:1001B0001A1A8A4203D2002243F8042BF8E7704748
:1001C00010B572B61A4B1B4A1A601B4A5A601B4A7A
:1001D0004FF0FF33136053609360D360136153613A
:1001E0009361D36162B6164C164B9C4207D294E8D9
:1001F00003000C3454F8042CFFF7CEFFF4E7124B45
:100200009C4206D254F8080B54F8041CFFF7CFFFA9
:10021000F5E7DFF84000016841F4700101600B4B25
:100220000B4A1A6000F018F800F01EF8FEE700BF55
:10023000003105400010DF10FFF7DF0180E200E031
:10024000140100145C0100148401001408ED00E0A6
:100250000000001488ED00E001B40248844601BCAF
:10026000604700BF8958001001B40248844601BCB1
:10027000604700BF8D02001005F068BC05F06EBC41
:1002800005F06CBC00207047012884B03CD870B9E0
:100290001E4B1A680092009AD20117D5009AD243D9
:1002A00042F0807201921A4A01981060F1E7194BEE
:1002B0001A680092009AD00417D5009AD24342F4EB
:1002C00080520192144A01981060F1E7134A1160BC
:1002D0001A680292029AD10116D4029AD24322F0ED
:1002E0008072039203990A4AF1E70D4A11601A6875
:1002F0000292029AD20407D4029AD24322F4805284
:1003000003920399044AF1E704B070475431054061
:1003100004310540503105400031054004340440AB
:1003200008330440034A01231370034A002013706A
:10033000704700BF286800100468001007B500214E
:1003400000910191034A0448012304F0F8F903B035
:100350005DF804FB285C0010185C001008B50378F9
:1003600033B1082B18D8013B0D4A52F823309BB10A
:100370000C4B00221A60027822B90B490B4804F09A
:10038000C3F902E0084B013A1A70094A01231370BD
:10039000084A1370002008BD4FF0FF3008BD00BFB1
:1003A000086800100068001005680010185C001054
:1003B0002868001004680010064B09B1D86107E0F6
:1003C00053F821200AB10131FAE7024B43F821002A
:1003D00000207047086800107FB5084BB3F9002073
:1003E00005AB00210093064B0191029118680B4662
:1003F00003F075FB059807B05DF804FBA8660010D4
:100400006468001008B502F071FDBDE80840FFF710
:1004100095BF08B504F090FA04F0F4F918B1BDE8FE
:100420000840FFF7EFBF08BD13B502A8002400F88D
:10043000014DFFF793FFFFF7ECFF042C07D8DFE82F
:1004400004F008032D1E2700154B1B786BB90324FD
:10045000F1E7144B1A78144B53F822309B689847F5
:100460000028B4BF03240124E5E70E4B1A780E4B95
:1004700053F82230DB6898470028DCDAE7E7084ABF
:1004800000231370094A04241370FFF7A5FFD2E775
:10049000034B1B78002BCED0FFF744FF0024CAE7A4
:1004A0002868001005680010086800100468001033
:1004B00070B5B0F1A05F86B004460D46164609D36C
:1004C0000F4AD36803F1A05398429EBF136803F10B
:1004D0006C43E41801A80021142205F052FB00230C
:1004E00003932946102301AA054801940296059317
:1004F00001F0F6FB003018BF0120404206B070BD8D
:10050000A868001008B504F019FA00210348FFF7A5
:1005100053FFFFF789FF002008BD00BFAC66001045
:1005200070B506460D46FF24084804F049F8012836
:1005300004D1013C14F0FF04F6D170BD31462A46C7
:1005400002480023BDE8704003F0F7BF00100840E8
:1005500010B500210446F0220220042303F092FE8D
:1005600001210220F022042303F08CFE064B2068B8
:100570004FF08072C3F8802005F0F0FA606805F053
:10058000EDFA204610BD00BF00E100E0F0B500210B
:1005900085B00746F0220220012303F073FE0121FB
:1005A0000B460220F02203F06DFE01200321F02211
:1005B000002303F067FEF02201200421002303F052
:1005C00061FE1F4D4FF4E1330193032300268DF8A4
:1005D000093028461B4B039301A901248DF80860BC
:1005E0008DF80A6003F01AFF284669468DF802600C
:1005F0008DF803608DF800408DF8014003F0E6FFB0
:100600002146284604F000F8042005F09FFA3860DF
:10061000042005F09BFA314678602246284603F014
:10062000B1FF22462846214603F0ACFF064B90223C
:1006300083F818234FF080721A6005B0F0BD00BF38
:100640000010084000CB280C00E100E000F1080297
:100650008260C26000F11002026142614160704735
:1006600011B90F23837000E08170531E9BB242F6D4
:1006700003118B4286BF42F6041303800280704749
:100680002DE9F04F0346254800278288D0F80080E6
:1006900085B0BA463E468146B9F906001FFA87FB87
:1006A000834537DA02FB0BFB4446C8EB040080B2FB
:1006B000904228D22578188845F00105B04298BFAD
:1006C0004FF0010AC8EB0B0CB9B1586803912044F4
:1006D000029210F80C000193CDF800C005F00AFA60
:1006E000019BDDF800C093F802E0029A0399401BD9
:1006F000704502DDBAF1000F08D05868204401347B
:1007000000F80C50D1E790440137C5E70136B6B286
:100710005546F2E705B0BDE8F08F00BF5468001001
:100720002DE9F047824600274FF4A07909FB07F92D
:100730000225DAF804304B445B5D002B3ED1274B99
:100740001B78012BAEB2BCB201D1023406E0032B00
:1007500001D1443402E0052B01D18634A4B2D04645
:1007600058F8083F43450CD11420FFF785FD0122BE
:10077000028146818481C6810482414605F00DFBD9
:100780001CE05A89911EA94226DCD889811C8D4221
:1007900022DC198AA1421FD8998901F1020E744501
:1007A0001ADCB24214D95E81A14200D29C811A891E
:1007B00001321A8100221B68002AD3D1013540F290
:1007C0003F139D42B5D10137412FADD1BDE8F08730
:1007D000B042E9D2DE81E7E70122ECE74D68001084
:1007E000034B0F229A7042F604121A80704700BF22
:1007F0003468001013B50B48FFF7C8FE02A80024A8
:10080000094B00F8014D1C7002F0E6FAFFF7E8FF13
:10081000064B1C805C80064B012220461A7002B0F9
:1008200010BD00BF2C6800104D6800104E6800100D
:100830004C68001010B50468204605F0B5FA204653
:10084000BDE81040FFF71ABD38B504460068A04265
:1008500004D00568FFF712FD2846F8E738BD38B523
:1008600004460068A04204D00568FFF707FD28464B
:10087000F8E738BD10B504461030FFF7F0FF04F17B
:100880000800FFF7E1FF204610BD000038B5044620
:1008900000F11005074B002228461A70FFF7DFFF12
:1008A0002561656104F108052846FFF7CDFFA560C5
:1008B000E56038BD4D68001070B504460025394824
:1008C00003F07EFE012804D10135B5F5807FF6D115
:1008D00017E00023334A5269D20704D40133B3F539
:1008E000807FF7D10DE014252E48666803F022FEC4
:1008F000307066683378A52B05D0013D15F0FF05F3
:10090000F2D1002070BD274803F014FE70706568B6
:100910006B78A93B032BF4D8DFE803F0021E3631D5
:10092000204803F007FEA8701E48656803F002FE29
:10093000E87063689A78DB7853EA0201E1D01A4DD7
:1009400043EA0222A9782846FFF78AFE2846FFF7E5
:100950009DFF6068042121E0124803F0EBFDA870C0
:10096000636899780029CCD00F4D28462A88FFF774
:1009700077FE2846FFF78AFF606803210EE00B4BE5
:100980001A784AB9012203E0084B1A7822B10022F2
:1009900005481A70FFF77AFF60680221FFF7C0FD73
:1009A000012070BD00100840346800104C68001031
:1009B00038B504460068A04204D00568FFF75EFC25
:1009C0002846F8E738BD8842F8B506460D461BD0E4
:1009D00004680968B4420FD0A94200D1F8BD8A6802
:1009E000A3689A4206DA0F6820463A4605F0C7F92E
:1009F0003946EFE72468EDE7A94205D020462A46AC
:100A0000BDE8F84005F0BBB9F8BD2DE9F041036839
:100A10008342ADF5027D064651D01B6883424ED01D
:100A20006D460023C5F800D0C5F804D00DF10808C4
:100A300008EB030243F808200833B3F5007F526047
:100A4000F4D14746316828680A68884201D090424C
:100A500006D14446BC4206D02368A34225D102E019
:100A600005F08DF9F5E72846214605F061F9BC420D
:100A700000D108373368B342E4D104ACBC42A4F1DE
:100A8000080104D02046FFF79EFF0834F6E7304601
:100A900005F04EF980AC2046083CFFF789FFAC42D8
:100AA000F9D12046FFF784FF09E020462946FFF7E9
:100AB0008AFF2146284605F03BF90834CAE70DF5C0
:100AC000027DBDE8F08100002DE9F04F044685B0BD
:100AD00054F8085FA542064600F0BF802846B5F8E6
:100AE0000880B5F80AB0AF89B5F80E90B5F810A037
:100AF00005F05AF92846FFF7C1FBB368A3420DD0B1
:100B00001A8990453FBFB3F80AB09F89B3F80E9099
:100B1000B3F810A01B6838BF9046EFE72046FFF7F8
:100B200093FEB460F4600C20FFF7A6FBCBF1A003AA
:100B3000CBEB0902A3EB62020281CAEB0703CAF105
:100B40006302A2EB630306F110084381414605F0FE
:100B500024F9346900232246424502D01268013349
:100B6000FAE7042B71DD02ADCDF800D0CDF804D04A
:100B700002950395444513D00C20B4F90870FFF793
:100B80007BFB6946876005F008F90C20B4F90A7010
:100B9000FFF772FB2946876005F0FFF82468E9E754
:100BA0006846FFF732FF2846FFF72FFF6846FFF73A
:100BB00041FE6846FFF73EFE009B294F9B683B8045
:100BC0002846FFF737FE2846FFF734FE029B254CE8
:100BD0009B687B802368A5221A702368A6225A701E
:100BE0003B881AB27F2A02DD23687F2203E07F322E
:100BF00003DA236881229A7001E0226893702368E7
:100C00007A88DA700027184803F0DAFC012804D14A
:100C10000137B7F5807FF6D105E01348216804223B
:100C2000002303F08AFC114B002228461A70FFF7BC
:100C3000BFFE6846FFF7BCFE07E0052B0DDD204632
:100C400005F0B2F82046FFF719FB3469002322466D
:100C50004245F2D012680133FAE705B0BDE8F08FE3
:100C60004E6800102C680010001008404C680010FE
:100C70007FB54C4C23780546062B00F29180DFE8C7
:100C800003F0041A334860748B0002234FF0420EC5
:100C90004FF4A0768DE848404FF49031424821222D
:100CA000002302F0B5F80146002879D12846FFF765
:100CB000E7FC012373E04FF4A07302260193422363
:100CC0000293009638484FF490312122002302F01D
:100CD0009FF8002864D128460121FFF7D1FC28465F
:100CE000FFF71EFD26705BE044214FF4A072422303
:100CF0008DE80E002C484FF490312122002302F0A1
:100D000087F8014600284BD12846FFF7B9FC03239A
:100D100045E044234FF4A07C4FF0420E8DE808508C
:100D200021484FF490312122002302F071F8B8BB22
:100D300028460121FFF7A4FC2846FFF7F1FC042315
:100D40002DE086204FF4A07342268DE849004FF431
:100D5000903115482122002302F05AF80146F8B9D3
:100D60002846FFF78DFC052319E086214FF4A07279
:100D700042238DE80E000C484FF4903121220023CD
:100D800002F046F860B928460121FFF779FC2846B1
:100D9000FFF7C6FC062302E0FFF796FE0023237050
:100DA00004B070BD4D6800100000081008B505487B
:100DB000FFF782FD044B1B7813B10448FFF758FF7F
:100DC000002008BD2C6800104C680010346800102A
:100DD00038B50B4D0B4C0C492846FFF737FC224623
:100DE00028460A49FFF74EFA094B0A480A490022E9
:100DF0005A801A802246BDE83840FFF743BA00BF48
:100E0000346800107067001080CD0810FD050010D8
:100E10004E6800102C680010D9020010084B094AD7
:100E20001A60094B9B68B3F1E05F01BF074AD2F833
:100E3000003243F40023C2F8003203F003BA00BFCB
:100E4000BC660010001BB70000ED00E00050004041
:100E500010B540EA01040346A40703D00AE010C914
:100E6000121F10C3042AFAD804E011F8014B03F84A
:100E7000014B521E002AF8D110BD0346C9B202E050
:100E800003F8011B521E002AFAD1704740F20310EA
:100E90007047F74948608004800C06D0012808D0CC
:100EA000022808D0032808D04869CA699207FCD4F0
:100EB0007047087DF9E7888AF7E7888A0A7D40EA63
:100EC0000240F2E710B54FF4001404EB415141EA3F
:100ED000006040EA0240184310BD806A400302D51A
:100EE0004FF4C01070470020704730B50D461346D0
:100EF0000446002211462846FFF7E4FF014620463B
:100F0000FFF7EBFFBDE830400843C2E7D84B00B520
:100F10009A60FFF7E2FF08435DF804EBB9E7F0B52C
:100F2000D34C16460F460546A36000231A463146A9
:100F30003846FFF7C7FF01462846FFF7CEFF0143BB
:100F40006160E0698007FCD4F0BD00220621CCE797
:100F5000F0B51C4615460E460746FFF7F6FF23463A
:100F60002A4631463846BDE8F040D8E7F0B51C4681
:100F700016460D460746FFF7E8FFBD4B9E60384614
:100F8000FFF7ABFF284340F400405860A804800CF2
:100F900007D001280BD0A1B202280AD0032804D020
:100FA0005C61D8698007FCD4F0BD9982240C1C7563
:100FB000F7E79982F5E7AE49CB6913F0060F19D030
:100FC0001022CA61CA6912F0160FFBD15A0711D557
:100FD000C26902F46002B2F5400F0BD3FF220A731C
:100FE000C0696FF30F0000F101004860087DC86917
:100FF0008007FCD470472DE9F041054600248C465B
:10100000EA7C012101FA02F1994F2046CEB2F9693A
:101010008907FCD444F62068641C444507D20122A9
:1010200005212846FFF761FFC0B23042F4D03042BC
:10103000904E28750CD0BCF1000F0ED0BCF1010F02
:101040000DD0BCF1020F06D0BCF1030F0BD108E0AC
:101050003046BDE8F081884C05E0884C03E0884CC0
:1010600001E04FF0FF342846FFF737FF854908437A
:10107000E97C08437860F869800702D5641EFAD1DC
:101080001EE0ECB1387D2875BCF1000F1ED0E86A77
:10109000E0B1C1B2052917D001222846FFF725FF8C
:1010A000C0B26875E96A10EA112F0FD0C1F3074189
:1010B00019B100222846FFF718FF6E48801CC8E7C8
:1010C0002846FFF778FFC3E7287DEBE70020C0E75D
:1010D00030B5154604460B46002211460120FFF7A5
:1010E000F1FE01462B4600222046FFF73FFF208DF0
:1010F000800401D5002030BD2046BDE830400021ED
:1011000079E7F0B50546C469806AA62681050BD546
:1011100004F42001B1F5000F06D144F40014EC6191
:10112000296A41F400112962810618D5400501D5CC
:10113000022700E001273F1D012285212846FFF7F5
:10114000D4FE00F00703E869C7F1100100F4E020C5
:10115000C8400343012281212846FFF7F9FE95F894
:101160002800C00707D000230322A3212846FFF749
:10117000D6FE761EFDD1C4F342513D48062904D364
:10118000A521C16024F4400401E0FF21C160846115
:10119000F0BD10B5044690F82800000611D50122D4
:1011A0002B212046FFF7A1FE6075A16A000621F4FD
:1011B000703102D54FF4803001E04FF4804001439C
:1011C000A16210BD30B50023816383840723C384EB
:1011D00010E0838CCC88234483840B79C48CCD8825
:1011E000DB0701D0022300E0012305FB03430831A4
:1011F000C384083A082AECD2C3F3CC01C18430BDC1
:10120000826B22B109B1828C0A80C08C704711B107
:101210008268120C0A808068C00C704710B50446C2
:1012200000F13C030021FFF7EBFF01001FD0A06A93
:1012300040F48070A0622046FFF74FFE40EA0102B2
:10124000114802430A48426002E0027D03F8012B84
:101250000A00A1F1010189B2F7D100218034A34233
:1012600002D203F8011BFAE7C1698907FCD410BD5B
:10127000003000400300020070820300E09C410047
:101280000083400A0040200500002072491C012212
:101290008A404FF0006182608A4200D90A46C260EB
:1012A00070472DE9F0410D460446C069FC491F46D0
:1012B0001646884272D02046A562FFF76AFFA068F2
:1012C000B0F1807F1CD9A06A40F40070A062207C3D
:1012D000012806D020280BD0C2280CD04FF00210D5
:1012E000B7E68023012217212046FFF718FE07E00A
:1012F0002046FFF72AFE0022B7212046FFF7F5FD22
:10130000680504D5E748016841F080510160DFF8C5
:101310009883680724D5012235212046FFF7E5FD93
:10132000C0B26075810755D4C00735D101220521AF
:101330002046FFF7DAFD617D41F0020140EA01201D
:1013400082B202212046FFF7C3FE0028C8D1012245
:1013500035212046FFF7C9FD60754FEA807019E01E
:10136000E8041CD5012205212046FFF7BEFDC0B2CE
:10137000207541062ED440F0400201212046FFF79F
:10138000A7FE0028ACD1012205212046FFF7ADFDC4
:101390002075400600281DDB40465AE652E028072B
:1013A00018D501223F212046FFF79FFDC0B260758E
:1013B00001060FD440F0800301223E212046FFF7B2
:1013C000C7FD01223F212046FFF78FFD60754FEAE0
:1013D0000060DFE7A80705D5002238212046FFF787
:1013E00084FD1BE0E80619D5680502D54FF0400CD6
:1013F00001E04FF0800C012265212046FFF775FDCA
:10140000C0B2607510EA0C0F08D040F0C80323EAA0
:101410000C03012261212046FFF79AFDC6F3C1406B
:101420000328A06A10D020F48020A062280507D5E8
:10143000C6F302435B1E0122C0212046FFF76FFD69
:10144000C4E90767002004E640F48020EDE72DE9B9
:10145000F041944D04469C46A86916460F4610F488
:10146000400F50D00146C0F3C140E16103284DD088
:101470000020A0622046FFF79EFD0022FF212046AB
:10148000FFF733FD0022012311466520FFF71AFD07
:1014900040F4C010FFF7FDFC55280CD040280AD3BB
:1014A000C02808D2810606D440F0C0030122612181
:1014B0002046FFF74DFD802200212046FFF7DDFC8E
:1014C00006F0C100C12824D04FF4702101EA074181
:1014D00041EAC0504FF6FF710844286003229F2163
:1014E0002046FFF702FD4FF000412061C4E90015DE
:1014F00030B16FF07F41884202D06C4988420BD1F5
:101500006948401DA5E540F44001ACE74FF4802058
:10151000AFE76548401E9CE54FF48040A0621C2068
:1015200060839C2020835E4FB00701D5384600E0E1
:101530005F4844F81C0F5F486060202020760C2034
:101540002075D820A0761020A07514F80C0C1C3C37
:101550007F2824D00CDC1F281BD004DC012814D0E9
:101560001C282ED113E0202815D0372829D114E0CB
:10157000C2281AD004DC8C2813D0BF2821D112E055
:10158000C82814D0EF281CD113E04B4D12E04B4D6E
:1015900010E04B4D0EE04B4D0CE04B4D0AE04B4D37
:1015A00008E04B4D06E04B4D04E04B4D02E04B4D47
:1015B00000E04B4D2DB1624631462046A847064615
:1015C00001E0394E361D06B30025E761284600F0DC
:1015D000D0FD0321012300220846FFF773FC0146DA
:1015E00000222046FFF792FC01460DB1FF2000E0EB
:1015F0000020814202D16D1C022DE7DB022D0AD1B1
:10160000A06A40F40070A06205E0208D000402D5BD
:101610002046FFF703FE2046FFF773FD304618E52E
:101620002DE9FF4F89B08046002000900A9893462C
:10163000C6684046FFF7BFFC4046FFF7AAFDD8F852
:101640002870780474D5B8F8180007F0040100F485
:101650007F40084300D001208146012205214046F9
:10166000FFF743FC88F814005FEA090004D0012268
:1016700035214046FFF739FC88F81500B8F81440CA
:10168000701C30D076B3B8F8180024EA000230405D
:10169000024309F101014046FFF71AFD009066E0A0
:1016A000FF3F80030030004005000200CCCCCC009E
:1016B000FF3F810B0080800227280010B522001018
:1016C000C52000109F26001025200010D9210010F1
:1016D0006D230010D1280010D924001029240010F7
:1016E000A72900100AE09BF8000008B30C980288B4
:1016F000B8F81A00024084432243CAE7B8F81A0037
:10170000204236D001208BF800000C98002509F10A
:10171000010A0480B8F81A00514624EA0002404643
:10172000FFF7D6FC009020B16D1C032DF2DB82E1A7
:101730001FE0A620401EFDD1012205214046FFF7F3
:10174000D4FB88F814005FEA090004D00122352197
:101750004046FFF7CAFB88F81500B8F81400B8F83F
:101760001A10084202D0FE48009064E10098002858
:10177000DDD117F4603FDAD04FF0000A0120D8F82D
:101780003850544607900EB1FF2000E0002006902C
:101790004FF4803005900A9808F13C0C4FF0000996
:1017A000D0E900100844CDF808C00890D8F81C0013
:1017B00004A9C0F34050C01C03904046FFF720FD31
:1017C00001900DB9BDF810A0380404D5F80502D475
:1017D0004046FFF723FD701C01D0AEB100E19BF83D
:1017E000000050B13804F9D5DDE901200C99FFF76C
:1017F0002FFB0020ADF81000F2E04046FFF781FC1F
:1018000000200DB0BDE8F08F00208BF800003804F8
:10181000E4D5DDE901210C98FFF71AFBE0E0BAF10D
:10182000000F3FD195F90500B5F806A0D5F8009056
:10183000002800DA40420121814005912879C00743
:1018400021D0B00140EA061040EA86003043C0B221
:10185000069002200790402C0CD0102C0AD0042CAB
:1018600008D0012C06D0202C0AD0082C08D0022C3D
:1018700006D017E04046FFF744FC4FF00210C0E7E7
:1018800044EA54040EE00EB1FF2000E00020069070
:1018900001200790302C03D00C2C01D0032C01D157
:1018A00004EA440434B925B12879C00701D0C02422
:1018B00000E080240A980599026809EB0100824241
:1018C00074D208984946484570D917F4403F5FD014
:1018D000701C0AD0002E1ADDF8030BD50B463621FA
:1018E0004046039AFFF734FB4BE09CF8000020428F
:1018F000F2D146E001230022E5200399FFF7E2FA46
:10190000014601234A464046FFF730FB39E038D113
:10191000F80301D53C2000E0E820012300220399D0
:10192000FFF7D0FA01464A464046FFF7EFFAC0B249
:10193000B90302D5C14389070AD0C00724D0F803F0
:101940000BD54B4639214046039AFFF701FB10E0C7
:101950004046FFF7D6FB824853E701230022E520EB
:101960000399FFF7AFFA014600234A464046FFF7C6
:10197000FDFA01208BF800009CF8000020438CF851
:1019800000000098F0BB11E09CF80000A043F6E7CF
:101990009CF80010069A21EA04002240104381427C
:1019A00004D08CF8000001218BF800100798C44087
:1019B00001D10CF1010C3DB195F90500002803DAC5
:1019C0000598C0F1000000E005988144AAF10100EB
:1019D0001FFA80FABAF1000F02D10DB105F1080526
:1019E000BDF81000A0F10101ADF8101000287FF43F
:1019F00016AF9BF8000028B138041CD54046FFF70D
:101A0000A4FA00E017E040460299FFF766FA019A4F
:101A10001043544A1043544A506002E011F8010B3D
:101A200010750198A0F101039BB201930028F5D134
:101A3000D0698007FCD44046FFF763FB0098E0E6DE
:101A400070B50A688368CBB10468944206D8C5684B
:101A50004E6825441644B54200D3121B934210D958
:101A60004C6814449C420CD80B7C13F0300F02D00D
:101A7000C068844205D800200A6070BD3848801CC8
:101A800070BD3748401E70BD70B515460C46064601
:101A9000FFF791FA3046FFF758FA33498D60304628
:101AA000FFF71BFA326A02F4600242EA0462104352
:101AB0004860C72C07D0602C05D001213046BDE816
:101AC0007040FFF798BA0321F8E770B516460C4648
:101AD0000546FFF73AFA24498C60286A304348608B
:101AE00070BD2DE9F047984617460E4682461C68A1
:101AF000DFF87490556865E03868C1B2C1F580744C
:101B0000396911B1A54200D22C46214602E0761C6B
:101B10006D1E641EB20709D03278FF2A11D1BDB103
:101B2000002CF4D114E0361D2D1F241F3268521CE6
:101B300007D1042D05D3042CF5D203E0761C6D1ECD
:101B4000641E2DB124B1042C02D23278FF2AF5D0C4
:101B5000091B0144396074B12246504606E000007A
:101B6000050002000080204200300040FFF7ADFF7A
:101B70003868204438603DB3002CBDD04846B107DA
:101B80000BD0C5B14CB116F8011B01756D1E641E5A
:101B9000F5E702CE41612D1F241F042D07D3042C2D
:101BA000F7D205E016F8011B01756D1E641E15B114
:101BB000002CF7D100E02CB902215046FFF71BFAA8
:101BC000002804D1002DD6D10020C8F80040BDE87F
:101BD000F0870068084404E00168491C04D1001D36
:101BE000121F002AF8D100207047136800681844BB
:101BF00010604840800701D00020704701207047E6
:101C00003FB51D460C4602AAFFF7EFFF35B348B9B2
:101C100022E0029814F8011B027891421FD1401C67
:101C20006D1E0290A0070BD0002DF2D116E0029895
:101C300021680268914212D1001D241D2D1F0290BF
:101C4000042DF4D208E0029814F8011B02789142A6
:101C500005D1401C6D1E0290002DF4D1002004B06F
:101C600030BDF8B50D46116800911E465468F74323
:101C70006A462946FFF7B9FF7CB3E8B1FAB2A80774
:101C800018D054B3009810F8013B82EA030115F80C
:101C9000013B0090734019421BD1641EEFE700988E
:101CA0002968026871407A40114212D1001D2D1D31
:101CB000241F0090042CF2D2FAB274B1009810F8EC
:101CC000013B82EA030115F8013B00907340194281
:101CD00001D00120F8BD641EEFE7FFE70020F8BD4A
:101CE0002DE9F74F17469CB08B46142239466846BB
:101CF00003F004FF00258DF8605069467C681C984D
:101D0000FFF79EFE060037D10098199020441790E7
:101D100028460390388A800507D405AB18AA69467F
:101D20001C98FFF77DFC060026D1B4E01C984FF00C
:101D3000010990F8301009FA01F00099421E21EAD9
:101D4000020A00EB0A08A8EB0105AC4200D22546C6
:101D50000195387C400706D400236A4659461C98F2
:101D6000FFF77FFF00B1012000991A9100287DD074
:101D7000387C000702D5F0481FB043E5B86828B3A7
:101D8000009A1799A2EB0A09414503D2179AA8EBCA
:101D9000020100E000218846B9F1000F08D01C992B
:101DA0004A46096841EA0A01FFF752F8CDF800A057
:101DB000B8F1000F0DD01C98BA680168179801435C
:101DC00002EB09004246FFF743F802E04FF000083B
:101DD000C1461C98524690F83410FFF755FE060095
:101DE00003D01C98FFF78DF966E0387C800610D58B
:101DF0001C98FFF786F91C980122514690F8300094
:101E000082401C98FFF7E5FE0028B5D11C98FFF72B
:101E1000D2F8002016900490CDF8049016AB6A46D4
:101E2000B9681C98FFF75DFE06460195B8F1000FF2
:101E300003D00020049016B108E00120FAE716ABA9
:101E40006A4659461C98FFF74CFE06460120CDF81D
:101E50000480049076B9B96816AB49446A461C9868
:101E6000FFF73FFE060005D1169800E05CE008B1E0
:101E70004FF002161C98FFF744F9EEB9387CC00603
:101E800007D52B4659461A9A1C98FFF7B9FE06004B
:101E900012D1AB44641B002C7FF448AFF86858B1F2
:101EA0000390199800907868019005AB18AA6946CC
:101EB0001C98FFF7B5FB064630465DE741F0FF0092
:101EC000451A6D1CAC4200D225464FF0FF336A46DE
:101ED000594601951C98FFF7C4FE00B31C98FFF704
:101EE0006AF800201690CDF8109016AB6A46594655
:101EF000DDF800A01C98FFF7F4FD06461C98FFF7DC
:101F000000F9002ED8D1387CC0060BD52B4652469E
:101F100059461C98FFF774FE0600CDD102E00098E8
:101F200028440090AB44641B002CB7D00099414575
:101F3000BFF4FCAEC2E72DE9F04F9DB081460C46E0
:101F40001422684603F0DAFD00268DF8686099F8DF
:101F5000301001208840D4F804B0199069461796D3
:101F60004846FFF76DFD05007ED10396208A800567
:101F700007D405AB1AAA69464846FFF751FB05008E
:101F800072D100991B9101EB0B00169000296CD1C6
:101F9000D9F80810594568D899F82800400664D443
:101FA0004846FFF708F800231A46C7214846FEF7BF
:101FB000CFFF03214846FFF71EF805464846FFF7C6
:101FC000A0F8A4E04FF0030C09EB0C001C9090F873
:101FD000300000287ED0012787400098791E20EA33
:101FE0000108A0EB080608EB07001699189081423B
:101FF00001D2401A00E000208246199886427ED223
:1020000019998A457BD2A06898B136B1D9F80010E9
:10201000324641EA0801FEF71BFFBAF1000F08D073
:10202000D9F80010169852460143A0683044FEF7D4
:102030000FFF09EB0C00424690F834104846FFF7BA
:1020400023FD05464846FFF75CF8002D6FD1207C44
:1020500080060DD51C980122414690F83000824040
:102060004846FFF7B6FD01E062E04CE005005FD1B5
:10207000A06880B301200490FEB14846FEF79BFFA4
:10208000CDE9008617AB6A464846A168FFF729FDEF
:1020900005464846FFF735F825B9179810B14FF0B7
:1020A000021544E0207CC00606D533464246484629
:1020B000A168FFF7A5FD0546CDBBBAF1000F17D00B
:1020C0004846FEF778FF1698CDE9000AA06817ABDE
:1020D000811901E013E00BE06A464846FFF701FD75
:1020E00005464846FFF70DF80DBB17980028D6D1D6
:1020F00018980090BB450BD9ABEB070B03E0BCF184
:10210000010C7FF561AFBBF1000F7FF45BAF75B9D8
:10211000E06860B11B98009060680190E0680390EF
:1021200005AB1AAA69464846FFF77AFA05462846DB
:102130001DB0BDE8F08F00000B0002004D4A4C4975
:1021400011604D4A122111604221121D11604B494C
:1021500048434FF4E111B0FBF1F149488022C260DD
:10216000CAB20260090A41600721C160472181604B
:10217000704728B1012805D0D32042490860704734
:10218000DB20FAE7C320F8E73E49F3200C3908606A
:10219000D3200861C8608860486013204861704798
:1021A00070B50D46334B0021A03B9961364E05E0DA
:1021B0005E615A691402FCD4C2F34D217839292991
:1021C000F6D2A02801D9A02002E00A2800D20A20D5
:1021D0004FF4A071B1FBF0F460430C21B0FBF1F1BE
:1021E0002A4A481E42EA0042586C294E064096424E
:1021F00013D0DE6EC6F304660C2E01D1254EDE66CA
:10220000C60706D140F0010058640020401CFF289A
:10221000FCD95A64186CC007FCD001EB41004FF4A4
:102220009672B2EB800F01D2032006E09622B2EB49
:10223000800F01D2022000E001208200121F42F034
:1022400010629A64A200121F42F010629A65084A56
:10225000DA66114A1A6701EB41018B00B3FBF0F01B
:102260000646FFF76BFF05B12E60B3FBF4F070BDBF
:102270000008000CA00005403466084040420F00F2
:102280000020084098610840780080068000000621
:10229000C333FF0F00080001000800102DE9F041D2
:1022A000467C847C0F460546302E04D0402E07D055
:1022B0001C48BDE8F081A4F11000072811D209E004
:1022C000A4F1150002280CD244F21C40688344F2A9
:1022D000FC502883611E2846FEF7D8FF402E05D10A
:1022E00002E01048401EE4E7F80508D50E484FF418
:1022F0008841162C01D30D4B05E02B6A03E00C48F6
:102300000C4B44F20401162C01D3062200E00422F7
:1023100040EA4252084802432846BDE8F041FEF731
:10232000C0BF000008000200000001BB008088A2BE
:10233000000003EB00808832FF3F10002DE9F041E0
:102340000546407C88464FF480460027A97CA0F1D2
:102350004303394CB200052B23D84B093ED1A0F1E1
:1023600032041646442806D045280AD046283BD3D6
:1023700044F4807438E0202230492846FEF722FFDA
:1023800032E0012930D12D49202220312846FEF7A4
:1023900019FF04229F212846FEF7A7FD000EE7D172
:1023A00022E0652809D0662807D0862814D087281F
:1023B00012D02148401CBDE8F081A0F156046528E8
:1023C00008D06C20688340F080002883002085F8C6
:1023D000320009E00420F5E7490901D02046EAE788
:1023E000723840F440741646522085F835000F20AC
:1023F00085F8310042F20500E86204F01F0128462A
:10240000FEF744FF14F4407F13D0B4F5407F02D3AD
:102410005FEAC85004D546F48061094A094B03E0DD
:10242000094A0A4B46F008012846BDE8F041FEF78C
:1024300038BF3846AE62BEE7070002003C5F0010BE
:10244000FF3F893B008088A2FF3F896B0080883274
:1024500070B50546407CAC7C0E469D2801D02D48C9
:1024600070BDA4F11300012818D90C38032803D833
:10247000113C44F4807411E02F2C07D0A4F14400E7
:10248000022806D8313C44F4407407E04FF48774C6
:1024900004E0A4F17C00022820D86C3C04F01F0169
:1024A000102902D80F2085F83200B4F5457F03D3F8
:1024B0003C206883BC2028832846FEF7E7FE14F4FE
:1024C0004070CDD04FF44072944201D3F0050DD549
:1024D0004FF48841944204D90F4803E00D48401E50
:1024E00070BD0E480E4B18432B6A03E00D480E4B8F
:1024F0004FF4A041944201D9062200E0042240EAB0
:10250000425243F6FF7002432846BDE87040FEF792
:10251000C8BE000008000200000010BB0000083B1D
:10252000FF3F0100FF3F13EB008088322DE9F041AF
:10253000457C867C0F460446202D08D005F0BE0061
:10254000302804D0382D02D02348BDE8F081A6F110
:102550001000092802D32048401EF6E7112E03D8A8
:102560000F2084F832000BE0202D09D1172E07D15F
:10257000102004F8300FD82020710020A070303CCB
:10258000711E2046FEF782FE162E06D0302D02D098
:10259000702D02D005E0162E03D33C206083BC20B2
:1025A000208305F0BF00302801D00020CDE7608BEC
:1025B000236A40F0C0002083F80503D54FF488411A
:1025C000064A04E0064A44F2020143F4C0132046DE
:1025D000BDE8F041FEF765BE08000200FF3F91BB79
:1025E000FF3FDBEB2DE9F041447C857C0F4606463E
:1025F000202C0AD0212C08D0302C06D0402C04D01E
:10260000412C02D02048BDE8F081A5F11300052837
:1026100002D31D48401EF6E7302C01D0412C05D1D5
:10262000BC203083412C01D13C207083691E304690
:10263000FEF72CFE600601D5F8050AD54FF4884157
:10264000600601D5114A00E0114A1248336A02437C
:1026500007E0162D09D04FF480500F4A0F4B40F47D
:10266000804114F09F0F02D005E00420F5E7162DFD
:1026700001D141F40051600601D542F48002304698
:10268000BDE8F041FEF70DBE08000200000010BBDF
:102690000000083BFF3F8100FF3F93EB0080883242
:1026A0002DE9F0410446066A407CA57C0F4640288F
:1026B00002D02248BDE8F081A5F1100007283AD8E1
:1026C000522084F835000F2084F83100102D0BD0F3
:1026D000142D05D3D22084F83700112084F833005C
:1026E000162D05D21C2005E0002084F83200F9E701
:1026F00044F21C006083162D02D24FF4FE7001E0FC
:1027000044F2FC502083691E2046FEF7BFFDF80509
:1027100003D544F201410A4A05E00A4A44F20501A0
:10272000162D00D3084E0948334602432046BDE823
:10273000F041FEF7B6BD0148401EBBE708000200AD
:10274000000011BB000013EB00808832FF3FC00087
:102750002DE9F05F457C847C8B4606464FF0000AED
:102760004FF48049202D08D0242D06D0252D04D0EB
:102770005E2D02D05648BDE8F09F04F01F08A8F176
:10278000100009286FD8A8F101013046FEF77EFD40
:10279000504904F00F00102C085C708340F080005A
:1027A000308302D1002086F8320001220521304614
:1027B000FEF79BFBC0B2307510F0400719D140F016
:1027C000400080F0040201213046FEF781FC5FEA00
:1027D000000AD0D1012205213046FEF786FB80F0A9
:1027E0000400C2B2327502F0400701213046FEF704
:1027F0006FFC202D02D0252D04D00FE0162C12D313
:1028000037B910E0A4F13300062801D9532C0ED3B8
:10281000522086F835000F2086F83100202D02D096
:10282000252D04D01AE0172C18D317B92EE0342C1C
:1028300014D3A8F1140006280ED2DFE800F0030735
:1028400015191D2123491022783902E0214910224F
:1028500068393046FEF7B6FC4FF08009A7B11BF48B
:10286000807F15D127E02FE01A4910225839F0E770
:10287000184918224839ECE7164918223039E8E798
:10288000144918221839E4E7202D1BD1152C19D32F
:1028900037B1202D01D1182C02D9BB21022001E033
:1028A0003B210120090641EAC0420B4849F48061FE
:1028B0000243336A02E0094B094A49463046FEF7B3
:1028C000F0FC8246504656E70148401E53E70000A0
:1028D00008000200F45F0010FF3F81000080903884
:1028E000FF3FD3EB0CB5024652A0D0E90030CDE952
:1028F0000030C80505D54B2A01D801200CBD0220A7
:102900000CBD002069460B5C934202D2401C052896
:10291000F9D3401C0CBD2DE9F0470446457C867C6C
:102920008A461046FFF7DEFFC7B24FF480484FF0EB
:102930000C09202D0ED0BA2D0CD0BB2D0AD0DB20D7
:102940000821802D1AD0402D21D0712D25D03B4853
:10295000BDE8F087D82084F83400112E01D80F206C
:1029600006E0202D03D1182E01D3122000E0102004
:1029700084F83000002084F832000EE030342071FA
:1029800021702020607184F80190303C05E084F8CB
:10299000340084F830104FF04008A6F110000A28E7
:1029A00002D32648401ED3E7711E2046FEF76EFC78
:1029B000132E02D2A4F81A9006E0BA2D04D3172ED3
:1029C00004D35C20608301E0712D11D0BA2D0FD0AB
:1029D000BB2D0DD00020618B40F080000843208388
:1029E000712D23D307D14FF41131154A154B18E03F
:1029F0004FF02000EFE71448E0625FEACA5006D5C6
:102A0000124844F2304140EA0742114B05E01148B8
:102A1000114B44F2300140EA0742182E01D341F431
:102A200000312046BDE8F047FEF73BBC0020C4F86B
:102A300028808DE7273B4E5F6C00000008000200F5
:102A4000FF3F893B008088A270305000FF3FD8BB19
:102A5000008098D2FF3FD8EB0080981210B5044652
:102A600005229F21FEF741FA000E032801D03049CC
:102A7000E1623049097D19B1012905D02E4810BD08
:102A8000122084F8300003E0032801D13C20608349
:102A9000A17C2046491EFEF7F9FB002010BD70B551
:102AA00004460D46407CA17CD82284F834201022B4
:102AB00084F83020002284F832201F4A521C022859
:102AC00003D0202813D0501C70BDA1F112000228A1
:102AD00003D82046FEF7DAFB13E0A1F11500012828
:102AE00002D81348E062F4E7192904D001E018295C
:102AF00001D0104670BD2046FFF7B0FF10F0FF0078
:102B0000F8D1E06A0028F5D0608B40F4365020837D
:102B1000E80504D54FF48841084A236A03E0084ACF
:102B2000084B44F204012046BDE87040FEF7B9BBF3
:102B3000056030000030004006000200FF3FD1BBBE
:102B4000FF3FD3EB0080883270B50446417C807C27
:102B5000254A262903D025292AD0501C70BD00F013
:102B6000DF01032926D80721E174002100F00705C1
:102B700084F8321005F113012046FEF787FB012D82
:102B800004D0022D05D0032D09D10DE028221749CC
:102B900002E01649282228312046FEF713FB144B89
:102BA000144A48F2020119E0104928225031F3E793
:102BB0004B2801D0104670BD16212046FEF766FB5B
:102BC0003C206083BC202083522084F835000F20F5
:102BD000094B0A4A84F831004FF4C8412046BDE849
:102BE0007040FEF75EBB00000700020000600010AE
:102BF00000809802FF3F990B008088A2FF3F91BBA5
:102C000008B5014638A06A46006800900020135CB1
:102C10008B4202D2401C0328F9D3401C08BD2DE989
:102C2000F0419046477C0446867C304A4FF480450C
:102C30004FF48840302F03D017F08F0F09D029E0D0
:102C4000A6F1100104290AD2218B41F02001218331
:102C500010E0702F1ED0A6F11203082B02D31046ED
:102C6000BDE8F08144F21C02628344F2FC1222832C
:102C7000C90500D50546711E2046FEF707FB522008
:102C800084F835000F2084F83100680505D5184A0E
:102C9000236A11E01548401CE2E7602F0FD00322A1
:102CA000022144F204050120120442EAC142114902
:102CB0000A43114941EAC043402F09D00EE044F6CF
:102CC00004054046FFF79CFFC2B203200146EBE734
:102CD000142E03D3162E01D845F0010529462046AF
:102CE000BDE8F041FEF7DDBA1E32500007000200D9
:102CF000FF3FD1BBFF3FC0EB0080803270B50F4E6D
:102D000005783378AB4217D00D4C382120684DB987
:102D10002A4602F0D5F820689621E12202F0D0F888
:102D2000357009E0102202F0CBF820689621F122DC
:102D300002F0C6F801233370002070BDC266001097
:102D40005C68001038B504460A4D227828682421B2
:102D500002F0B6F822782868142A86BF143AD2B254
:102D60000022252102F0ACF8034B22781A700020D3
:102D700038BD00BF5C680010C36600102DE9F34148
:102D8000134C0746884620680921102202F098F863
:102D90000025454510DA7E19795D2068727802F0C9
:102DA0008FF8795D206802F0A1F8737883421CBF28
:102DB000002301930235ECE720680921002202F08C
:102DC0007FF80448FFF7BEFF02B0BDE8F08100BF06
:102DD0005C680010C366001038B50A4D04782B7883
:102DE000A34209D00CB9084802E0012C06D10748DB
:102DF0001E21FFF7C3FF2C70002038BD4FF0FF30BD
:102E000038BD00BFC46600107860001096600010E6
:102E10002DE9F04393B09846BDF86C50BDF8704072
:102E2000BDF8687004FB05F306468B424FF0FF3097
:102E3000914611904CD8131108D108EB0503B3F556
:102E4000A06F4ADC3B19B3F5487F13E0012B08D192
:102E500008EB0503B3F5207F3FDC3B19B3F5C87FD2
:102E600008E0022B37D108EB0503B3F5A07F34DC73
:102E70003B19C82B31DC12A809F00F0300F8053DFF
:102E8000FFF7AAFF002828DB154BB3F90020CDF887
:102E9000009004230221019311AB03910591079146
:102EA00009910C9300210F4B0296CDF810800697E4
:102EB00008950A940B910D910E911868012300F06A
:102EC0000EFE119848B9084B1E609D80DC8004E01E
:102ED0006FF0010001E06FF0020013B0BDE8F08375
:102EE000C0660010646800105468001030B50C4DC6
:102EF0000C4A85B000245A238DE81800214601238E
:102F0000284601F01CFC0DF10F012246284601F075
:102F1000FBFB0DF10F00FFF715FF05B030BD00BF43
:102F2000B4600010BF60001013B50420FDF7A4F9D1
:102F30006021044601F07EFF104B2046A0211C605A
:102F400001F0D4FF28210E48FFF718FF02A8002443
:102F500000F8014DFFF740FF0A4B0B491868224665
:102F600000F035FE094BA042188003DBFFF7BEFFDF
:102F7000204601E04FF0FF3002B010BD5C68001049
:102F8000196100106468001010610010C066001024
:102F9000024B00221A60DA809A8070475468001051
:102FA00070470020704710B50023934203DACC5CD1
:102FB000C4540133F9E710BD836813B143600023A3
:102FC00083607047F0B5002351F8232004689E0009
:102FD0008F19002A32D0092B30DC251D12F8012C64
:102FE0000560256815B96FF00200F0BD12F0800F82
:102FF00012D102F00F02012A03D18A5912782A70E5
:103000001AE0022A03D18A5912882A8014E0042A7D
:10301000E9D18A59126802E0A12A8A5901D12A60AD
:103020000AE012682A6004F1080202606268013353
:10303000002AD8D07C6814600133C5E7231D0360E3
:1030400020680028CFD1F0BDF8B590F83B30054698
:103050000E4617460BB98A061FD5EC681CB9330615
:1030600005D40020F8BD4FF0FF30002401E04FF000
:10307000FF3095F839309C4209DA2B682846DB6826
:1030800031463A4698470028EBD00134F1E7002852
:1030900005DA002385F83B30F8BD6FF00500F8BD78
:1030A000F8B5858E0E4940352F010446384602F0AA
:1030B0003DFE064688B100213A4602F062FDA28E2E
:1030C000216B3046120102F051FD206B08B1FDF773
:1030D000D7F82663A5860020F8BD6FF00400F8BD80
:1030E0007A660010F8B506460F460025ACB2B28EDF
:1030F00023B2934209DA1B01326BD05818B139461A
:1031000002F0F2FD20B10135F0E74FF6FF7000E06C
:10311000204600B2F8BDF8B504460D46164605B384
:1031200020462946FFF7DEFF002813DAB4F834E022
:103130000027B8B203B2734505DB73450AD12046B8
:10314000FFF7AEFFEBE71A01216B8A580137002A1F
:10315000EFD1F2E7226B03B21B01D118D5504E60BC
:1031600001E04FF6FF7000B2F8BD38B504461546D1
:10317000FFF7B8FF236B2A8803EB00131A8138BDD1
:10318000437E70B5054613B16FF0040070BD11B9F0
:103190004469803401E001F180042046084902F0CE
:1031A000C5FD06460028EFD069686A6902F0DEFCBA
:1031B000686808B1FDF764F86E606C61002070BD4E
:1031C0007A6600102DE9F04F8A4685B01F46054605
:1031D00040B190F83A30006A13B100F1040802E0FF
:1031E000804600E080460123C8EB020901933B685A
:1031F00093F800B01A1D3A60BBF1000F00F0DE80BA
:103200000BF0BF02012A08F101040AEB08060AF8D4
:1032100008B008D13A68111D1268396008F1020639
:103220000AF80420B0E0022A12D13A68E60748BF43
:1032300024F0010402F1040148BF023439600AEBB2
:103240000401128801F801BCA61C2AF804209BE0A6
:10325000042A02D0BBF1640F11D13A68A00718BF4D
:1032600024F0030402F1040118BF043439600AEBAE
:103270000401126801F801BC4AF8042016E0142A7F
:1032800016D13A68073222F0070202F108013960CC
:10329000D2E9000102F012F9A1071CBF24F00304D7
:1032A00004340AEB040202F801BC1060261D6BE036
:1032B000A12A23D13A68111D396013680293184678
:1032C00002F024FD421C1619A9F108018E420FD903
:1032D00015B96FF0040075E0284631460392FFF7F8
:1032E0004FFF00286EDBD5F804A0D5F81490039AA0
:1032F00002990AEB040002F039FC45E012065FD5A2
:103300003968081D386008680BF0300130290BF06F
:103310000F0201BF00230BF08F0B86F800B0019362
:10332000A3071CBF24F0030404340AEB0401261D88
:1033300001F801BC511E0E4218BF5142019B4AF8D0
:1033400004001CBF0E40B618F3B100FB02F3F418E2
:10335000A9F1080294420DD90293002DB9D0284654
:103360002146FFF70DFF00282CDBD5F804A0D5F887
:103370001490029B3A68111D39600AEB060011682F
:103380001A4602F0F3FB26462DB1AA7E1AB91BF0AD
:10339000400F18BF4646A9F108039E4201D8B04627
:1033A00025E7002D95D028463146FFF7E9FE002895
:1033B00008DBD5F804A0D5F81490F0E7404601E00A
:1033C0006FF0020005B0BDE8F08F0B4610B5416804
:1033D00042690446FFF7F6FE0028A1BF236AC01A1F
:1033E000E060002010BD0EB4F3B59DF81C5090F8BD
:1033F0003A60C768182D08BF002302A908BF80F8EB
:103400003A3008AB41F8043D0446FFF7DEFF182DC3
:1034100003D094F83A3033B928B920461821002255
:10342000FFF712FEE76084F83A6002B0BDE8F040B2
:1034300003B070472DE9F3410D880368003518BFCC
:1034400001250E46044629461B6890469847338856
:1034500084F83B50E38698F80030003318BF01230E
:1034600000210746A3760091E37E019120460122C8
:10347000FFF7B9FF384602B0BDE8F08170B5B1F989
:103480000020838E056B88B000249A4206468DF892
:103490001F4012DA1301E918EB5873B1C96861B122
:1034A000A122009201910292C968039104940594AB
:1034B0002146FFF798FF204610E00DF11F01019112
:1034C000039113010021A12200920292049105911F
:1034D0003046EB58FFF787FF4FF0FF3008B070BD64
:1034E0002DE9F04190460422C26001F0200288B02C
:1034F00004460F4602F0FF05BAB10122A02980F868
:103500003A2004D193E80600FFF72FFE97E0A129A7
:1035100004D193E80600FFF78DFF90E0A22940F068
:103520008C801968FFF7AAFF89E0182904D1026886
:103530001946926890479BE0828E904580F29A806F
:10354000026B02EB08125668002E00F093802846AA
:10355000C2B2013053F822100029F9D1012184F8B8
:103560003A1012B92046B04769E0012A03D1186821
:103570002146B04763E0022A04D193E803002246C3
:10358000B0475CE0032A04D193E807002346B04724
:1035900055E0042A03D100940FCBB0474FE0052A31
:1035A00005D11A698DE814000FCBB04747E0062A11
:1035B00007D11A6900925A69019202940FCBB04761
:1035C0003DE0072A09D11A6900925A6901929A6965
:1035D000029203940FCBB04731E0082A0BD11A694D
:1035E00000925A6901929A690292DA6903920494EC
:1035F0000FCBB04723E0092A0DD11A6900925A690E
:1036000001929A690292DA6903921A6A0492059405
:103610000FCBB04713E00A2A0FD11A6900925A69FA
:1036200001929A690292DA6903921A6A04925A6ABA
:10363000059206940FCBB04701E04FF0FF30002316
:10364000FFB284F83A303B0617D56268236AD0503F
:10365000236B03EB081307F03F01204641F04001C4
:10366000B3F90820FFF7F0FC05462046FFF7A4FC5D
:10367000284603E04FF0FF3000E0002008B0BDE82E
:10368000F0812DE9F8434FF0000905460F46164634
:10369000C846B94546D2B8F10A0F4AD015F80940D4
:1036A00014F0800F09F1010004F00F020FFA88F105
:1036B0000BD1531E03421EBF5442204080182B18CA
:1036C00046F8213000EB020927E004F0BF04A12CEA
:1036D00008D1284446F8210002F018FB09F102093C
:1036E00081441AE083071CBF20F00300043005EB7F
:1036F000000E2C5846F821E00430511E08421CBF31
:103700005142084008F10103DBB218BF80182918A4
:1037100046F8231002FB0409984608F101035FFAFA
:1037200083F8B6E70FFA88F3002046F82300BDE8D7
:10373000F8834FF0FF30BDE8F88310B58CB0144625
:1037400001AAFFF79EFF002803DB204601A9FFF72F
:1037500039FC0CB010BD10B542180023904204D0C3
:1037600010F8014B23449BB2F8E7581880B210BD03
:1037700038B5436804461971104818606168E06AFA
:10378000E3688B600368CA801D68638D4022A84788
:10379000002812DB226AE3681A44402A0CD9637EAF
:1037A00053B9E06A6168036840311D68638D403A2F
:1037B000A84700EAE07038BD002038BD5555AAAAD8
:1037C00013B5034609B1592200E09522D86A8DF855
:1037D000072002685B8D14680DF107010122A047E4
:1037E0000028B4BF6FF06500002002B010BD0000DB
:1037F0002DE9F3410446C06A1746026888465568B9
:1038000003B1A38C0DF105010122A847051E5FDB62
:1038100002D14FF0FF305FE000269DF80530E06AEE
:103820001B0643EA16262E4B02689E42238D08D0C3
:1038300055680DF105010122A847051E48DBECD1B2
:10384000E7E756686168226AB047002842DB236ACE
:103850009D42DEDB63681B7888F8003066687388F9
:103860003B80276A7568E56039463046FFF773FF8D
:103870008046E06AC7F14007BD42036828BF3D4665
:1038800031465F68238DAA1CB847002824DB6B1CD7
:103890008342BEDA61680DF1060029440222FFF777
:1038A00082FB60682946FFF756FFBDF806304044AA
:1038B000834206D1256120460121FFF781FF0020C8
:1038C0000AE020460021FFF77BFF6FF0010003E0D4
:1038D000284601E06FF0640002B0BDE8F08100BF4F
:1038E0005555AAAAF8B504460F4616461D46E06A85
:1038F00061680368D3F804C00DB1A38C00E02B46C7
:103900004022E047002833DB3F2816DD6368194A70
:1039100019689142EBD11B793B706368DA8899682A
:10392000236A3280E16019446369994208D92046CC
:10393000FFF726FC002803DAF8BD4FF0FF30F8BD92
:10394000256AE3681D44402D01D9637E0BB1002038
:10395000F8BD4026E06A6168036831445F68238DE2
:103960002A46B847002803DB0644AE42F2D3EEE70E
:10397000F8BD00BF5555AAAA2DE9F74F036AC168E3
:103980001944436903319942044605D9FFF7F8FB0E
:10399000061E01DA304656E00027B8462369E5687E
:1039A000AB4246D2E28EE06A6168ED1A954228BFCA
:1039B000154602681944D2F804C0E38CEA1CE047BB
:1039C000002838DBAB1CB34238DA236961682B442A
:1039D0000DF1060011F803A0013319440222FFF78C
:1039E000E2FAD4F810906068BDF806B04844691C4B
:1039F000FFF7B1FE83450FD1D04502BF4D4408F11A
:103A00000108256120464FF0010108BF5FFA88F8E0
:103A10000027FFF7D5FEC1E720460021FFF7D0FEC3
:103A20007B1C94F83820DBB29A420AD90237FFB2E5
:103A3000B4E7002007E06FF0640004E04FF0FF30CF
:103A400001E06FF0030003B0BDE8F08F2DE9F8430B
:103A500004460F4690461D469DF82090FFF7ACFAAD
:103A6000267E3EB12046394642464B46FFF73AFF96
:103A700016E001364B46204639464246FFF7B8FE6F
:103A8000831C07D194F838309E42F2D36FF00300C4
:103A9000BDE8F88308B1BDE8F8832046FFF76CFF66
:103AA000D8B93B78206A13F0400F0ED063681844F1
:103AB000042200F8042C6168236A0B4403F8012CEB
:103AC000E368206A13440438E3606368E1681844DB
:103AD0002A46BDE8F843FFF7D4BDBDE8F8830CB42F
:103AE0002DE9F0414FFA81F8B8F1000F90B004468B
:103AF0000D4603DB90F83B30002B61D010AF17ABC5
:103B000047F8303D00262046E660FFF755FA20468C
:103B10003946FFF75AFC002854DBB8F1000FAABF62
:103B200080238DF80D508DF80D3020469DF80D1036
:103B3000BDF95820B8BF3546FFF786FA002841D1B5
:103B4000E9073BD4E06A03689B689847012305AE08
:103B5000009320460DF10D010DF10E023346FFF7E3
:103B600075FF78BB9DF80D104A0611D42368BDF986
:103B70000E20D3F804C020463346E047E06A0368CD
:103B8000DB689847A38C9842E0D96FF0640019E095
:103B9000AB070DD5049B1A1D04921A68002AF9D0B0
:103BA000002356F8231042F8231039B10133F8E707
:103BB00038463146FFF706FA002803DB002001E013
:103BC0006FF0050010B0BDE8F04102B0704730B5AD
:103BD000044689B00D4612B1FFF79DFA01E04FF699
:103BE000FF7002230022019300B207AB02900493FE
:103BF0000095039205922046A021A123FFF76FFFB5
:103C00000028ACBFBDF81C004FF6FF7000B209B031
:103C100030BD30B504468BB00D4609B1C38E00E00F
:103C20000B46009301230193E37E029309AB00222C
:103C300004930DF123030593039206922046A121DC
:103C40000223FFF74CFF002808DB9DF8233009987A
:103C500084F83B50003318BF0123A3760BB030BD6E
:103C60000B6810B5C16204461B69084600219847DD
:103C7000C0F340002076E06A036800211B69984782
:103C800000F001006076E06A03685B699847237E74
:103C9000E0860BB10C2300E008232362637E63B14E
:103CA000E06A036801211B6998476060E06A036865
:103CB00002211B699847606105E080206061064928
:103CC00002F034F86060207F28B120460121BDE871
:103CD0001040FFF79EBF10BD7A66001070B51E46FB
:103CE000184B03600446032380F8383080F83930DD
:103CF00000254FF47A738384C56205764576456066
:103D000085604FF4FA7063854023E0842085E17676
:103D100022770D4984F83A5084F83B50A576A38663
:103D20004FF4806002F002F8A28E2063294612014F
:103D300001F027FF1EB120463146FFF791FF2046D4
:103D400070BD00BF506100107A66001037B5C06AC0
:103D5000134602680C4655680DF107010122A84779
:103D600000280ADB0CD09DF80730592B4FF00000DB
:103D700006BF01232370207004E06FF0640001E0AF
:103D80004FF0FF3003B030BDF7B504460E46C06AB1
:103D90002A4B02A9154641F8043D036804221F6816
:103DA000638DB847002846DB63681E706168E06A6F
:103DB000E3684B6003684D80226A1D68638DA847E5
:103DC000002838DB6668216A3046FFF7C4FCE568E6
:103DD000ADF80200E06A402D036828BF40251F6847
:103DE000638D31462A46B847002802DA6FF0650035
:103DF00021E060682946FFF7AEFCBDF8023002A959
:103E0000184421F8060DE06A036802221E68638DDB
:103E1000B0470028EADB20460DF10101A28CFFF734
:103E200095FF002807DB9DF8013013B125610020C4
:103E300001E06FF0010003B0F0BD00BF5555AAAA24
:103E400073B5002304468DF804302369E568AB425E
:103E500044D2E28EE06A6168ED1A954228BF1546A9
:103E6000026819441668638D2A46B047002802DAB2
:103E70006FF0650033E0E06A036801A91E68638D96
:103E80000122B0470028F3DB236960682946184403
:103E9000FFF761FC0121064601A8FFF75CFC02A9BF
:103EA000304421F8020DE06A036802221E68638D27
:103EB000B0470028DCDB20460DF10501E28CFFF75E
:103EC00045FF00280BDB9DF80530002BBDD0236992
:103ED0001D449DF8043025610133B4E7002002B091
:103EE00070BD037E70B504460E4615461BB1BDE895
:103EF0007040FFF73DBC2A4620463146FFF744FF9D
:103F0000821CF8D020B92046BDE87040FFF798BF6A
:103F100070BD00000A231A4958430A1810B51479D5
:103F2000184B2D2C12D033F9143003F1804303F5D4
:103F3000A0231968C807C1F303631ED4D288C2B195
:103F40001149505810F0010013D110BD095C33F92C
:103F5000113003F1804303F5A0231B68D9070CD46B
:103F60005288C3F3036322B10749505810F001008F
:103F700004D0064A52F8230010BD002010BD00BF37
:103F80005E640010E465001004000540C86600107F
:103F90001E4A536813F0020F1D4B05D052681207DA
:103FA00002D44FF4004200E000221A60194A516C1A
:103FB00088070DD4116CC9070AD5506C526CC2F336
:103FC0000741C0F3036253F8222001FB022200E004
:103FD00000225A620C22104931F9121001F180417D
:103FE00001F5A021096888075BBFC1F38700C1F311
:103FF0000361002153F821105CBF0130B1FBF0F1E7
:1040000043F822100132112AE5D1704700300440F4
:10401000C866001000000540E46500100A4B984295
:1040200004D80A4A936923F0040306E0084B984237
:1040300008D8064A936943F004039361054B9861DD
:104040000020704705207047BFE1E40000000540F4
:104050003F787D01C8660010A0F10C03042B12D834
:104060000A4B33F910305A1C0DD003F1804303F58D
:10407000A02301391A68C9B222F47F7242EA810290
:104080001A60002070470220704700BFE4650010EE
:1040900008B590B92C4B5A6839B122F00C025A601D
:1040A0005A6842F003025A6008BD22F003025A60C7
:1040B0005A6842F008025A6041E0022804D10C20FC
:1040C00000211022032305E0032806D1012013213B
:1040D0001022002300F0D6F831E0031F012B2ED967
:1040E000062809D1194B9A6911B942F0010201E081
:1040F00022F001029A6122E0154B33F910305A1C6C
:104100001FD003F1804303F5A0231A6819B942F0C8
:1041100001021A6013E022F0010207281A6004D19C
:104120000A4BDB69D907FBD509E0092807D1074B02
:104130001A6CD207FBD51B6CDB0700D4FEE700200E
:1041400008BD022008BD00BF00300440000005404B
:10415000E4650010102810B52CD8CC1FE4B21E2C3A
:104160002CD82D2303FB0013154AD35C13B3154A37
:1041700032F91030B3F1FF3F0AD0092C08D803F10F
:10418000804303F5A023DB7803F00F038B4213D0A9
:1041900032F911305A1C11D003F1804303F5A023EA
:1041A0001A6822F0706242EA006242F400621A6009
:1041B000002010BD032010BD012010BD022010BD45
:1041C00060610010E4650010194A1A49536CC3F38A
:1041D000036370B551F82330546C17492140516482
:1041E000164943438B4200F1FF30154612D85B005D
:1041F0000124002203FB04F68E4202D8013264003F
:10420000F8E76B6C43F0400343EA004040EA0220C9
:10421000686408E00A498B4207D8536C43F0C00336
:1042200043EA00405064002070BD042070BD00BF10
:1042300000000540C86600103DCC00FFFF5E4C0941
:10424000FFCF121308B50D48FFF7E8FE0C4A93693B
:1042500023F00103936109210620FFF77BFF06206D
:10426000FFF7B2FF01210920FFF712FF15210920F6
:10427000FFF770FFFFF78CFE002008BD001BB700A2
:104280000000054001EB4010800000F1804000F587
:104290000620134403607047F0B504460020D2B1F5
:1042A0004FF0FF336569AD0602D4A3B1013BF9E7D6
:1042B0008BB101F110060B4613F8015B2560B34288
:1042C000A0EB010502F1FF321D4401D0002AF3D119
:1042D00028461946E3E7F0BD2DE9F04F4D4B9842D3
:1042E00089B004468846174602D14AB9202004E026
:1042F000494B984204D11AB92120FFF70BFE07461B
:104300003B0903933B070293DDE90223CDE9042334
:104310004FF0FF33069300220023CDE90023002550
:10432000C4462E464FF0010AE3464FF000095A46B4
:104330000023DDE90401CDF81CC001F00FF9B0F154
:10434000004F0A4688BF4A1C02F1FF31034688BF6E
:104350004342B1F5803FDDF81CC00BD206998B4279
:1043600008D210460021CDE90001002B4BD0069366
:1043700055464E4609F10109D145C344D7D1DDE97F
:104380000401DDE9022309F1010A12184B41BAF1D7
:10439000100FC444CDE90423C6D1DDE90023134343
:1043A0002FD0009BA9193809019FA1FB032301FB12
:1043B00007336843002101F0D1F880458CBFC0EB82
:1043C0000800C8EB000064235843B0FBF8F8B8F1CC
:1043D000020F16D8009BE2689DF800101B0ADBB2A2
:1043E00042F08002E26063602160E3682D0106F024
:1043F0000F06EDB203F07F033543E3600120A562B1
:1044000004E0002002E055464E46CAE709B0BDE888
:10441000F08F00BF00100840002008403D4B98423C
:1044200070B504460D4604D121210920FFF792FE04
:1044300067E0394B98421E4663D109202221FFF7DD
:1044400089FE0723A3600023A3607269324BD00763
:1044500001D51B68F9E780221A632F4B5A69910630
:10446000FBD500221A635A60DA601A621A61DA64B4
:104470005A651A659A695B6914E00123E36563690B
:104480009B06FCD50023E3656360E360236223643D
:10449000A364A365E3646365236562691F4A94426C
:1044A00008BF6362AA6829682046FFF715FF6A798A
:1044B000E368012A03F0C00305D009D3022A05D11D
:1044C00043F0020304E043F0010301E043F003037F
:1044D0002A797AB1032A08D0042A09D0022A14BF03
:1044E00043F0080343F0180304E043F0280301E01D
:1044F00043F03803AA79012A08BF43F00403E360BC
:1045000070BD0723A3600023A3606369DA07B4D5F5
:104510002368FAE7001008400020084000200C4003
:104520004FF4165303600323437100230371837117
:10453000836070470068C0B27047012BF0B5054634
:104540000E46144601D0002015E0BDE8F040FFF70C
:10455000A3BE6B699B0614D506F11001334613F810
:10456000012B2A608B42A0EB060204F1FF341A44AF
:1045700004D110461E46002CEBD102E0002CEED1F7
:10458000F7E7F0BD062996BF0B4B002333F8113037
:10459000012A0A4A03D1426813434360704790429C
:1045A00041680CBF40F28F3240F20732DB430A40D1
:1045B00013404360704700BF3E6600100020084073
:1045C000406980F04000C0F380107047CB78022B28
:1045D0009CBF0C4AD35C4A7888BFC123012A0A7861
:1045E00008BF43F00403012A8A7808BF43F002039E
:1045F000012A08BF43F0080323F03003DBB28360D5
:10460000704700BF4C66001001290B4B09D198423E
:1046100003D1036B43F0800308E0C36D43F0010353
:1046200007E098424FF0000302D1026B036370472A
:10463000C26DC365704700BF0020084038B505460D
:10464000083001F063FB00F10904281901F05EFB5A
:10465000013003192B44581B13F8012B002AFAD000
:1046600038BD38B54488B4F5807F054601D90020AF
:1046700038BDFFF7E3FFA11E0144A81CFFF76BF84C
:104680004FF6FF739842F2D038BD000070B5064671
:104690000C4611B101F5805512E00E4BDD6805F1B5
:1046A0009F5404F5FF1405F1A05509E0AC420FD268
:1046B000304604F1080101F017FB38B104F58074AD
:1046C00022884FF6FF739A42F0D101E0204670BD78
:1046D000002070BDA86800100A4BDA6802F19F50F4
:1046E00000F5FF1001884FF6FF73994202F1A053C5
:1046F00004D0984202D200F58070F3E7984228BFB8
:1047000000207047A86800100FB437B50698002144
:10471000FFF7BCFF054658B102AC07AB44F8043DB7
:10472000FFF78CFF698828442246FFF706F801E06E
:104730004FF0FF3003B0BDE8304004B070470CB418
:1047400070B5C2B00D4600210446469EFFF79EFF9D
:104750000146002848D14FF4807202A801F011FAF6
:10476000214604A801F0CAFA204601F0CFFA00F170
:10477000090300F10A044EB102AAD018314601F033
:10478000BDFA304601F0C2FA221806E042AA02EB56
:104790000323A3F5807322461E70930718BF22F0EF
:1047A000030247AB18BF0432019302AB99180020F3
:1047B000C2F5807201ABFEF705FD041E17DB02A8EF
:1047C0000395ADF80A40FFF74CFFADF80800FFF77E
:1047D00083FF054670B102A8FFF730FF02A9021956
:1047E0002846FBF765FE07E06FF0010004E06FF07C
:1047F000020001E06FF0030042B0BDE8704002B07B
:1048000070470000024B002218781A70704700BFF2
:104810006068001010B5064C064920460A2200F0D8
:104820008BFC204601210022BDE8104000F0B3BC03
:1048300000300E40400D03001149124B00220A6067
:1048400042F2840107205A500F49086042F20401E5
:1048500082B05A5003F504531A60196841F00401FC
:10486000196001920199094A914202D8019A0132D4
:10487000F7E71A6822F004021A6002B0704700BF1E
:1048800080600F4000400F4000600F407F9698000E
:10489000074B42F2940100225A5042F21411202098
:1048A000585042F288015A5042F208015A5070475B
:1048B00000400F40064B002201211A605960DA6067
:1048C00003F578331A60CB225960DA60704700BF75
:1048D0000050084008B500F01FFAFFF7EBFFFFF7A4
:1048E000D7FF0248BDE8084000F0A6BB00CB280C6B
:1048F00013B50E4C2378022B16D023B90C4800F0C8
:10490000A7FC01230FE0012B0ED1094B186800F022
:10491000A5FC084B984207D902A8002300F8013DE6
:10492000FEF7ECF90223237002B010BD616800109D
:1049300068680010C0C62D00FFF7DABF38B5FFF772
:10494000C9FF00F0CBFBFFF765FFFFF775FF1020F5
:10495000FBF792FC054600F061FB0A490020FBF7DB
:1049600093FC3C20FBF788FC2B46002101220446E7
:10497000FFF7B4F9044B1C6000F0E4F9BDE83840DF
:10498000FEF7D2BA008000206468001082B00023D5
:104990000093009A42F20F739A420AD800230193BF
:1049A000019B252B02D8019B0133F8E7009B0133C3
:1049B000EEE702B0704700008A4B10B50024C3F840
:1049C0000841C3F82041C3F82841C3F80842C3F89E
:1049D0001842C3F82042C3F81844C3F82044C3F86F
:1049E0003044C3F83844C3F87044C3F87844C3F87B
:1049F0000846C3F81046C3F81845C3F8304603F517
:104A000080532046C3F800472146C3F80042E02205
:104A1000C3F80043C3F800482346FFF733FC2046A1
:104A20000121F0222346FFF72DFC01200F21F02267
:104A30002346FFF727FC01201021E0222346FFF741
:104A400021FC01200721F0222346FFF71BFC012057
:104A50000821F0222346FFF715FC01200921F0224E
:104A60002346FFF70FFC01200A21F0222346FFF71F
:104A700009FC01200B21F0222346FFF703FC012053
:104A80000C21F0222346FFF7FDFB01200D21F0222F
:104A90002346FFF7F7FB01200E21F0222346FFF704
:104AA000F1FB01200521F0222346FFF7EBFB01205B
:104AB0000621F0222346FFF7E5FB02200B21F0221E
:104AC0002346FFF7DFFB02200C21F0222346FFF7ED
:104AD000D9FB02200D21F0222346FFF7D3FB06204D
:104AE0000521F0220123FFF7CDFB06200C21F02247
:104AF0000123FFF7C7FB04200221F0220123FFF767
:104B0000C1FB02200721F0220123FFF7BBFB02209B
:104B10000A21F0220123FFF7B5FB03200121F02237
:104B20000423FFF7AFFB05200621F0220423FFF743
:104B3000A9FB05200721F0220423FFF7A3FB022095
:104B40002146F0220423FFF79DFB02200121F022E1
:104B50000423FFF797FB01200321F0220523FFF731
:104B600091FB01200421F0220523FFF78BFB01209C
:104B700003461321F022FFF785FB01200346142191
:104B8000F022FFF77FFB02200146F0220423FFF70B
:104B900079FB02200321F0220423FFF773FB042199
:104BA0000B460220F022FFF76DFB02200521F022C8
:104BB0002346FFF767FB03200221F0220423FFF7BF
:104BC00061FB02200821F0220423FFF75BFBF022A7
:104BD000234604200121FFF755FB034BF1221A6005
:104BE00010BD00BF00100540006C084008B572B64B
:104BF0004248FFF713FA01210620FFF749FA152171
:104C00000620FFF7A7FA09210620FFF7A3FA0120E3
:104C1000FFF7DAFA01210920FFF73AFA0D210920FE
:104C2000FFF798FA01210D20FFF732FA0C210D2031
:104C3000FFF712FA324BD3F8AC2022F07062C3F8BF
:104C4000AC20D3F8AC2042F05062C3F8AC200C2169
:104C50000920FFF77FFA01210C20FFF719FA022142
:104C60000C20FFF7F9F916210C20FFF773FAFFF774
:104C70008FF9244B2449D3F8782442F02102C3F859
:104C80007824D1F82C2142F48032C1F82C21D3F8B9
:104C9000302442F00102C3F830240920FFF794FACF
:104CA00015210920FFF756FAFFF770FE1120FFF7D4
:104CB0008BFAFFF76BFEFFF76BF9144BF322C3F887
:104CC0008C21D322C3F89C21C3F89821C3F89421E6
:104CD000C3F890211322C3F8A0211920FFF71AF975
:104CE0000B4BB0FBF3F305210A48B3FBF1F1C022F3
:104CF000FCF7ADFB00B1FEE762B608BD001BB700D4
:104D000000000540001005400030044000600840ED
:104D100040420F00A868001008B5FCF77FF800F0CB
:104D2000A1F9FFF763FFBDE80840FFF745BE08B5EE
:104D3000042000F069FA4FF425535843800A00F527
:104D4000A57008BD42F2140210B50A4CA35843F4F2
:104D50008073A350FFF7EBFF41F61E13984242F217
:104D60001413E2588CBF22F4807242F48072E25035
:104D700010BD00BF00400F400C4A82B0136810B154
:104D800043F0020301E023F0020311B143F00103F9
:104D900001E023F00103136000230193019B632BC7
:104DA00002D8019B0133F8E702B0704700610F4061
:104DB000074A136843F00103136082B00023019394
:104DC000019B632B02D8019B0133F8E702B07047C7
:104DD00000600F40074A136823F00103136082B09C
:104DE00000230193019B632B02D8019B0133F8E759
:104DF00002B0704700600F4008B501200146FFF780
:104E0000BBFFFFF7D5FF01200021FFF7B5FF002012
:104E10000146BDE80840FFF7AFBF08B501200021FB
:104E2000FFF7AAFF01200146FFF7A6FFBDE80840F3
:104E3000FFF7D0BF074A10B50170136843F00203B3
:104E400013600446FFF7C6FF01200021FFF794FF1F
:104E5000204610BD00600F4038B50D4608242B06D3
:104E60004FF0000009D50121FFF786FF0120014620
:104E7000FFF782FF0020012108E00146FFF77CFFD9
:104E800001200021FFF778FF00200146013CFFF7D9
:104E900073FF6D0014F0FF04EDB2E0D1FFF79AFF4D
:104EA00020462146FFF768FF21460120FFF764FFF7
:104EB00020462146FFF760FFBDE83840FFF778BF86
:104EC00070B5044615460E46FFF796FF204621783A
:104ED000FFF7C2FF20463146FFF7BEFF20462946B6
:104EE000FFF7BAFFBDE87040FFF797BF38B504463B
:104EF0000D46FFF781FF20462178FFF7ADFF2046E2
:104F00002946FFF7A9FFFFF788FFFFF775FF217814
:104F100001312046C9B2FFF79FFFFFF75BFF08256D
:104F2000002401200021FFF727FF114B1B68002000
:104F30006400DB07E4B2014605F1FF3548BF44F0E9
:104F40000104FFF719FF15F0FF05EAD128460121FA
:104F5000FFF712FFFFF72CFF01200146FFF70CFFC0
:104F600028460121FFF708FFFFF757FF204638BD0D
:104F700000610F40806870476FF063007047000069
:104F80000A494B430A4910B58C680A48418889B2DE
:104F9000012907D106498968091B9942F5D94FF0C3
:104FA000FF3010BD01234380104610BDE01C0300FC
:104FB0000050084000F000200A494B430A4910B550
:104FC0008C680A48018889B2012907D00649896896
:104FD000091B9942F5D94FF0FF3010BD0023038023
:104FE000104610BDE01C03000050084000F00020F7
:104FF0000C3000F02DB9C06800F030B9012904D0A0
:10500000022904D031B9406870470348704740F620
:10501000FC7070470020704704F00020044A0549E6
:105020000160002303218360416053801380704737
:1050300000F00020586600101FB5044601A8FFF7D5
:105040006FFA0394064C4FF4E133204601A9019313
:10505000FFF7E4F920460121FFF7D6FA04B010BDAE
:10506000002008400C4B84B01B6802930B4B1B685C
:105070000393029A0A4B9A420CD1039A094B9A4223
:1050800008D1094A13680193019B43F4700301930B
:10509000019B136004B0704740EF00E044EF00E074
:1050A000210011101100001188ED00E0064B1B6873
:1050B00010B503EB0013DC68987899889A6823464A
:1050C000BDE81040184700BF2C690010024B0001DA
:1050D0001B68185C704700BF2C690010094B82B038
:1050E000D3F854310093009BDB0109D5009BDB43CF
:1050F00043F080730193034B019AC3F80421EFE757
:1051000002B0704700300540094B70B500241C60A8
:10511000E6B23046FFF7DAFF0128054604D13046F3
:10512000FFF7C4FF034B1D550134042CF0D170BDB3
:10513000003404402869001070B514460F4A054633
:1051400095424FF000000E46286003D00C4A95426D
:1051500003D10120FEF7DEFE034604FB0666C4F120
:105160000A04640406EB43037600B3FBF6F244F44E
:105170000013541E43EA04242C6070BD00300E401E
:1051800000400E40036823F0E0630360036843EAD5
:1051900001610160704710B50123C4688B4024EAA7
:1051A0000304C46012B1C2681343C36010BD012A76
:1051B00015BF0123036802688A4015BF8B401A435C
:1051C00022EA0303026018BF03607047043150F8FD
:1051D0002100C0F389107047043150F8210012B14A
:1051E00000F0004001E000F08040003018BF0120D6
:1051F00070470000034B99689A68521A8242FBD3A9
:10520000704700BF00300C4038B5C4B221460F488B
:105210000122FFF7CCFF4FF4FA70FFF7EBFF0B48CA
:105220000121FFF7AFFF094821460122FFF7D4FF14
:105230000028F8D021460548FFF7C8FF214605465B
:1052400000220248FFF7B3FF284638BD00300E4069
:10525000014B9B680360704700300C40014B9B681A
:10526000181A704700300C40364B002170B5196099
:10527000354BD3F8C02122F08012C3F8C021D3F8F7
:10528000C82122F08012C3F8C821D3F8CC2122F023
:105290008012C3F8CC214FF0FF32C3F87821C3F855
:1052A0007C11C3F84421D3F8AC21C3F8AC21D3F866
:1052B000BC21C3F8BC21D3F8B021002AFBD1224A7B
:1052C0004FF0FF31C2F8B411D3F8B4411E4E002C98
:1052D000FAD1D6F840311D4D23F47F03C6F8403192
:1052E00021464FF40072284600F04BFC21464FF453
:1052F0008072174800F045FC16482146102200F045
:1053000040FCC6F85851124B104903EB441305EB0F
:1053100084120134082C9360F5D10B4A0E4BC2F86D
:1053200048310E4B1B68C3F309031B0443F00053C1
:1053300043F400430B600B644FF0C013C2F8C0315C
:1053400070BD00BF7C68001000600040007000105D
:10535000407200106C6800104701010000720010DC
:105360002DE9F041504BD3F84441C3F8444167065E
:1053700009D5FFF779FF4D4B9B68002B00F0928019
:10538000BDE8F0411847E60503D5484BDB6803B19B
:10539000984765070BD5444BD3F88431980542BF35
:1053A000434B01221A60414B1B6903B198473E4BA6
:1053B000D3F8AC2172B14FF00112C3F8BC21D3F87D
:1053C0007C2142F00112C3F87C21384BDB6A0BB11F
:1053D00001209847344BD3F8BC7117B9E1032FD49F
:1053E00051E0344EC3F8787100254FF0010808FAF7
:1053F00005F818EA070F06D033680BB1022098476A
:10540000294BC3F8BC8105F110034FF0010808FADD
:1054100003F818EA070F0DD0274B03EB85135A6AE0
:1054200002F0C0025A6233680BB1032098471E4B4A
:10543000C3F8BC810135042D06F10406D5D1CDE7B2
:10544000194AD2F87831D2F87C511D401BD0194F3F
:1054500000260123B3402B4203D03B680BB104204C
:10546000984706F11002012393402B4203D03B687A
:105470000BB1052098470136042E07F10407E8D147
:10548000094BC3F87851220603D5084B9B6903B139
:105490009847A30706D5054BDB691BB12046BDE83D
:1054A000F0411847BDE8F081006000400072001034
:1054B0007C6800102C720010407200104FEA41020C
:1054C000B2F1E04324BFB3F5001CDCF1FE5C0DD962
:1054D00001F0004C4FEAC0024CEA5070B2F1004FAC
:1054E00040EB830008BF20F00100704711F0804FAF
:1054F00021D113F13872BCBF01F00040704741F474
:1055000080114FEA5252C2F11802C2F1200C10FA77
:105510000CF320FA02F018BF40F001004FEAC1235B
:105520004FEAD32303FA0CFC40EA0C0023FA02F3FF
:105530004FEA4303CCE77FEA625307D150EA0133D5
:105540001EBF4FF0FE4040F44000704701F00040A5
:1055500040F0FE4040F40000704700BF4BB942B934
:10556000002908BF002802D04FF0FF31084600F0A4
:105570003BB882B0EC462DE9005000F01DF8DDF894
:1055800004E002B00CBC70472DE9F041069C1546C2
:1055900006460F46984600F029F805FB01F300FB8C
:1055A0000838A5FB0023B21A434467EB0303C4E9A0
:1055B0000023BDE8F08100BF2DE9F041069C904634
:1055C00006460F461D4600F05FF900FB05F5A0FBFF
:1055D000082308FB0155B21A2B4467EB0303C4E907
:1055E0000023BDE8F08100BF704700BF00292DE90E
:1055F000F043C0F2A6800026002BC0F29C808846B3
:1056000094469E46154604460F46002B3DD18A42DD
:1056100059D9B2FA82F33BB1C3F120029F4020FA7C
:1056200002F29D4017439C40290C220CB7FBF1FE6F
:10563000A8B201FB1E7742EA074700FB0EF3BB420C
:105640000AD97F190EF1FF3280F00581BB4240F28A
:105650000281AEF1020E2F44FF1AA4B2B7FBF1F3A0
:1056600001FB137744EA074700FB03F0B84208D96F
:105670007F1903F1FF3280F0F080B84240F2ED80F4
:10568000023B43EA0E43002203E08B420FD9002283
:105690001346341C18BF012460424FF0000565EB2F
:1056A00045015840514000196941BDE8F083B3FA03
:1056B00083F2002A40F086808B4202D3844500F2B8
:1056C000DB800123E5E712B90123B3FBF2F5B5FA5C
:1056D00085F000283BD1781B4FEA154E1FFA85FC58
:1056E0000122B0FBFEF8210C0EFB180741EA074728
:1056F0000CFB08F3BB4207D97F1908F1FF3102D236
:10570000BB4200F2BD808846FF1AA4B2B7FBFEF38D
:105710000EFB137744EA07470CFB03FCBC4507D993
:105720007F1903F1FF3102D2BC4500F2A7800B467E
:1057300043EA0843ADE752426FEA060663EB4303D0
:105740005DE7404261EB41014FF0FF3654E7C0F1A5
:10575000200224FA02F107FA00F385404FEA154EC1
:10576000D7401943B7FBFEF20B0C0EFB12771FFA62
:1057700085FC43EA07430CFB02F79F4204FA00F45E
:1057800007D95B1902F1FF3074D29F4272D9023AF5
:105790002B44DF1B89B2B7FBFEF80EFB187341EAFE
:1057A00003430CFB08F79F4208D95B1908F1FF314E
:1057B0005CD29F425AD9A8F102082B44D81B48EA70
:1057C00002428EE7C2F120032CFA03F10EFA02FE28
:1057D00020FA03F741EA0E0E08FA02F028FA03F164
:1057E0004FEA1E453843B1FBF5F8030C05FB1811D1
:1057F0001FFA8EF743EA014107FB08F38B420CFACC
:1058000002FC09D911EB0E0108F1FF3930D28B42AD
:105810002ED9A8F102087144C91A80B2B1FBF5F380
:1058200005FB131140EA014107FB03F78F4208D93A
:1058300011EB0E0103F1FF3016D28F4214D9023B57
:10584000714443EA0843C91BA3FB0C89494509D3AA
:1058500005D000221DE79646FEE6134611E7944068
:105860004445F6D2013BF4E70346EAE78846A5E75C
:10587000C846D1E702468CE713460AE7023B57E7E2
:10588000A8F102082F443FE72DE9F041002B44D155
:105890008A42154604464FD9B2FA82F70E464FB1F6
:1058A000C7F12003B94020FA03F602FA07F50E43C8
:1058B00000FA07F44FEA154E230CB6FBFEF0AFB228
:1058C0000EFB106143EA014307FB00F1994209D93D
:1058D0005B1900F1FF3280F0EC80994240F2E980E0
:1058E00002382B445A1AA4B2B2FBFEF30EFB132269
:1058F00044EA024207FB03F7974208D9521903F121
:10590000FF3180F0D880974240F2D580023B43EAD5
:10591000004000263146BDE8F0818B4247D8B3FAFB
:1059200083F6002E48D18B4202D3824200F2CD8012
:1059300001203146BDE8F08112B90125B5FBF2F531
:10594000B5FA85F8B8F1000F77D14A1B4FEA154E2A
:10595000AFB20126B2FBFEF0230C0EFB102143EA8E
:10596000014107FB00F38B4207D9491900F1FF32CF
:1059700002D28B4200F2BA801046C91AA4B2B1FB1F
:10598000FEF30EFB131144EA014407FB03F7A742A1
:1059900008D9641903F1FF3280F08F80A74240F2EA
:1059A0008C80023B43EA00403146BDE8F08100268E
:1059B00030463146BDE8F081C6F1200422FA04F5F4
:1059C000B3402B4320FA04FC01FA06F721FA04F550
:1059D0004FEA134E4CEA0707B5FBFEF8390C0EFBF5
:1059E00018551FFA83FC41EA05450CFB08F1A94252
:1059F00002FA06F204D9ED1808F1FF3467D3A04685
:105A00006D1ABFB2B5FBFEF40EFB145547EA054113
:105A10000CFB04FC8C4504D9C91804F1FF355CD398
:105A20002C4644EA0844CCEB0101A4FB0223994232
:105A300048D344D0204600266CE7C8F1200401FA80
:105A400008F305FA08F520FA04F7E1404FEA154E8D
:105A50001F43B1FBFEF63A0C0EFB16111FFA85FC34
:105A600042EA01430CFB06F29A4200FA08F407D915
:105A70005B1906F1FF3137D29A4235D9023E2B44E9
:105A80009B1ABFB2B3FBFEF00EFB103347EA034391
:105A90000CFB00F1994207D95B1900F1FF3221D2CA
:105AA00099421FD902382B445A1A40EA06466746E3
:105AB00050E7104616E70B4629E7134672E7B04059
:105AC0009042B7D2601E002624E7304622E7A94262
:105AD00095D9A8F102081D4492E78C45A0D9023C53
